{
  "_format": "hh-sol-artifact-1",
  "contractName": "CrowdFunding",
  "sourceName": "contracts/CrowdFunding.sol",
  "abi": [
    {
      "inputs": [
        {
          "internalType": "uint256",
          "name": "",
          "type": "uint256"
        }
      ],
      "name": "campaigns",
      "outputs": [
        {
          "internalType": "address",
          "name": "owner",
          "type": "address"
        },
        {
          "internalType": "string",
          "name": "title",
          "type": "string"
        },
        {
          "internalType": "string",
          "name": "description",
          "type": "string"
        },
        {
          "internalType": "uint256",
          "name": "target",
          "type": "uint256"
        },
        {
          "internalType": "uint256",
          "name": "deadline",
          "type": "uint256"
        },
        {
          "internalType": "uint256",
          "name": "amountCollected",
          "type": "uint256"
        },
        {
          "internalType": "string",
          "name": "image",
          "type": "string"
        }
      ],
      "stateMutability": "view",
      "type": "function"
    },
    {
      "inputs": [
        {
          "internalType": "address",
          "name": "_owner",
          "type": "address"
        },
        {
          "internalType": "string",
          "name": "_title",
          "type": "string"
        },
        {
          "internalType": "string",
          "name": "_description",
          "type": "string"
        },
        {
          "internalType": "uint256",
          "name": "_target",
          "type": "uint256"
        },
        {
          "internalType": "uint256",
          "name": "_deadline",
          "type": "uint256"
        },
        {
          "internalType": "string",
          "name": "_image",
          "type": "string"
        }
      ],
      "name": "createCampaign",
      "outputs": [
        {
          "internalType": "uint256",
          "name": "",
          "type": "uint256"
        }
      ],
      "stateMutability": "nonpayable",
      "type": "function"
    },
    {
      "inputs": [
        {
          "internalType": "uint256",
          "name": "_id",
          "type": "uint256"
        }
      ],
      "name": "donateToCampaigns",
      "outputs": [],
      "stateMutability": "payable",
      "type": "function"
    },
    {
      "inputs": [],
      "name": "getCampaigns",
      "outputs": [
        {
          "components": [
            {
              "internalType": "address",
              "name": "owner",
              "type": "address"
            },
            {
              "internalType": "string",
              "name": "title",
              "type": "string"
            },
            {
              "internalType": "string",
              "name": "description",
              "type": "string"
            },
            {
              "internalType": "uint256",
              "name": "target",
              "type": "uint256"
            },
            {
              "internalType": "uint256",
              "name": "deadline",
              "type": "uint256"
            },
            {
              "internalType": "uint256",
              "name": "amountCollected",
              "type": "uint256"
            },
            {
              "internalType": "string",
              "name": "image",
              "type": "string"
            },
            {
              "internalType": "address[]",
              "name": "donators",
              "type": "address[]"
            },
            {
              "internalType": "uint256[]",
              "name": "donations",
              "type": "uint256[]"
            }
          ],
          "internalType": "struct CrowdFunding.Campaign[]",
          "name": "",
          "type": "tuple[]"
        }
      ],
      "stateMutability": "view",
      "type": "function"
    },
    {
      "inputs": [
        {
          "internalType": "uint256",
          "name": "_id",
          "type": "uint256"
        }
      ],
      "name": "getDonators",
      "outputs": [
        {
          "internalType": "address[]",
          "name": "",
          "type": "address[]"
        },
        {
          "internalType": "uint256[]",
          "name": "",
          "type": "uint256[]"
        }
      ],
      "stateMutability": "view",
      "type": "function"
    },
    {
      "inputs": [],
      "name": "numberOfCampaigns",
      "outputs": [
        {
          "internalType": "uint256",
          "name": "",
          "type": "uint256"
        }
      ],
      "stateMutability": "view",
      "type": "function"
    }
  ],
  "bytecode": "0x6080604052600060015534801561001557600080fd5b5061178b806100256000396000f3fe6080604052600436106100555760003560e01c806307ca140d1461005a5780630fa91fa914610085578063141961bc146100c35780635fd937db146101065780639943e3a114610122578063a6b036331461015f575b600080fd5b34801561006657600080fd5b5061006f61018a565b60405161007c9190610c23565b60405180910390f35b34801561009157600080fd5b506100ac60048036038101906100a79190610c7e565b610190565b6040516100ba929190610e59565b60405180910390f35b3480156100cf57600080fd5b506100ea60048036038101906100e59190610c7e565b6102a0565b6040516100fd9796959493929190610f38565b60405180910390f35b610120600480360381019061011b9190610c7e565b61049a565b005b34801561012e57600080fd5b506101496004803603810190610144919061111d565b6105f3565b6040516101569190610c23565b60405180910390f35b34801561016b57600080fd5b5061017461072f565b60405161018191906114c9565b60405180910390f35b60015481565b6060806000808481526020019081526020016000206007016000808581526020019081526020016000206008018180548060200260200160405190810160405280929190818152602001828054801561023e57602002820191906000526020600020905b8160009054906101000a900473ffffffffffffffffffffffffffffffffffffffff1673ffffffffffffffffffffffffffffffffffffffff16815260200190600101908083116101f4575b505050505091508080548060200260200160405190810160405280929190818152602001828054801561029057602002820191906000526020600020905b81548152602001906001019080831161027c575b5050505050905091509150915091565b60006020528060005260406000206000915090508060000160009054906101000a900473ffffffffffffffffffffffffffffffffffffffff16908060010180546102e99061151a565b80601f01602080910402602001604051908101604052809291908181526020018280546103159061151a565b80156103625780601f1061033757610100808354040283529160200191610362565b820191906000526020600020905b81548152906001019060200180831161034557829003601f168201915b5050505050908060020180546103779061151a565b80601f01602080910402602001604051908101604052809291908181526020018280546103a39061151a565b80156103f05780601f106103c5576101008083540402835291602001916103f0565b820191906000526020600020905b8154815290600101906020018083116103d357829003601f168201915b5050505050908060030154908060040154908060050154908060060180546104179061151a565b80601f01602080910402602001604051908101604052809291908181526020018280546104439061151a565b80156104905780601f1061046557610100808354040283529160200191610490565b820191906000526020600020905b81548152906001019060200180831161047357829003601f168201915b5050505050905087565b60003490506000806000848152602001908152602001600020905080600701339080600181540180825580915050600190039060005260206000200160009091909190916101000a81548173ffffffffffffffffffffffffffffffffffffffff021916908373ffffffffffffffffffffffffffffffffffffffff1602179055508060080182908060018154018082558091505060019003906000526020600020016000909190919091505560008160000160009054906101000a900473ffffffffffffffffffffffffffffffffffffffff1673ffffffffffffffffffffffffffffffffffffffff168360405161058f9061157d565b60006040518083038185875af1925050503d80600081146105cc576040519150601f19603f3d011682016040523d82523d6000602084013e6105d1565b606091505b5050905080156105ed578282600501546105eb91906115c1565b505b50505050565b6000806000806001548152602001908152602001600020905042816004015410610652576040517f08c379a000000000000000000000000000000000000000000000000000000000815260040161064990611689565b60405180910390fd5b878160000160006101000a81548173ffffffffffffffffffffffffffffffffffffffff021916908373ffffffffffffffffffffffffffffffffffffffff160217905550868160010190805190602001906106ad929190610b05565b50858160020190805190602001906106c6929190610b05565b5084816003018190555083816004018190555060008160050181905550828160060190805190602001906106fb929190610b05565b506001600081548092919061070f906116a9565b91905055506001805461072291906116f2565b9150509695505050505050565b6060600060015467ffffffffffffffff81111561074f5761074e610ff2565b5b60405190808252806020026020018201604052801561078857816020015b610775610b8b565b81526020019060019003908161076d5790505b50905060005b600154811015610afd576000806000838152602001908152602001600020905080604051806101200160405290816000820160009054906101000a900473ffffffffffffffffffffffffffffffffffffffff1673ffffffffffffffffffffffffffffffffffffffff1673ffffffffffffffffffffffffffffffffffffffff1681526020016001820180546108219061151a565b80601f016020809104026020016040519081016040528092919081815260200182805461084d9061151a565b801561089a5780601f1061086f5761010080835404028352916020019161089a565b820191906000526020600020905b81548152906001019060200180831161087d57829003601f168201915b505050505081526020016002820180546108b39061151a565b80601f01602080910402602001604051908101604052809291908181526020018280546108df9061151a565b801561092c5780601f106109015761010080835404028352916020019161092c565b820191906000526020600020905b81548152906001019060200180831161090f57829003601f168201915b505050505081526020016003820154815260200160048201548152602001600582015481526020016006820180546109639061151a565b80601f016020809104026020016040519081016040528092919081815260200182805461098f9061151a565b80156109dc5780601f106109b1576101008083540402835291602001916109dc565b820191906000526020600020905b8154815290600101906020018083116109bf57829003601f168201915b5050505050815260200160078201805480602002602001604051908101604052809291908181526020018280548015610a6a57602002820191906000526020600020905b8160009054906101000a900473ffffffffffffffffffffffffffffffffffffffff1673ffffffffffffffffffffffffffffffffffffffff1681526020019060010190808311610a20575b5050505050815260200160088201805480602002602001604051908101604052809291908181526020018280548015610ac257602002820191906000526020600020905b815481526020019060010190808311610aae575b505050505081525050838381518110610ade57610add611726565b5b6020026020010181905250508080610af5906116a9565b91505061078e565b508091505090565b828054610b119061151a565b90600052602060002090601f016020900481019282610b335760008555610b7a565b82601f10610b4c57805160ff1916838001178555610b7a565b82800160010185558215610b7a579182015b82811115610b79578251825591602001919060010190610b5e565b5b509050610b879190610bed565b5090565b604051806101200160405280600073ffffffffffffffffffffffffffffffffffffffff16815260200160608152602001606081526020016000815260200160008152602001600081526020016060815260200160608152602001606081525090565b5b80821115610c06576000816000905550600101610bee565b5090565b6000819050919050565b610c1d81610c0a565b82525050565b6000602082019050610c386000830184610c14565b92915050565b6000604051905090565b600080fd5b600080fd5b610c5b81610c0a565b8114610c6657600080fd5b50565b600081359050610c7881610c52565b92915050565b600060208284031215610c9457610c93610c48565b5b6000610ca284828501610c69565b91505092915050565b600081519050919050565b600082825260208201905092915050565b6000819050602082019050919050565b600073ffffffffffffffffffffffffffffffffffffffff82169050919050565b6000610d0282610cd7565b9050919050565b610d1281610cf7565b82525050565b6000610d248383610d09565b60208301905092915050565b6000602082019050919050565b6000610d4882610cab565b610d528185610cb6565b9350610d5d83610cc7565b8060005b83811015610d8e578151610d758882610d18565b9750610d8083610d30565b925050600181019050610d61565b5085935050505092915050565b600081519050919050565b600082825260208201905092915050565b6000819050602082019050919050565b610dd081610c0a565b82525050565b6000610de28383610dc7565b60208301905092915050565b6000602082019050919050565b6000610e0682610d9b565b610e108185610da6565b9350610e1b83610db7565b8060005b83811015610e4c578151610e338882610dd6565b9750610e3e83610dee565b925050600181019050610e1f565b5085935050505092915050565b60006040820190508181036000830152610e738185610d3d565b90508181036020830152610e878184610dfb565b90509392505050565b610e9981610cf7565b82525050565b600081519050919050565b600082825260208201905092915050565b60005b83811015610ed9578082015181840152602081019050610ebe565b83811115610ee8576000848401525b50505050565b6000601f19601f8301169050919050565b6000610f0a82610e9f565b610f148185610eaa565b9350610f24818560208601610ebb565b610f2d81610eee565b840191505092915050565b600060e082019050610f4d600083018a610e90565b8181036020830152610f5f8189610eff565b90508181036040830152610f738188610eff565b9050610f826060830187610c14565b610f8f6080830186610c14565b610f9c60a0830185610c14565b81810360c0830152610fae8184610eff565b905098975050505050505050565b610fc581610cf7565b8114610fd057600080fd5b50565b600081359050610fe281610fbc565b92915050565b600080fd5b600080fd5b7f4e487b7100000000000000000000000000000000000000000000000000000000600052604160045260246000fd5b61102a82610eee565b810181811067ffffffffffffffff8211171561104957611048610ff2565b5b80604052505050565b600061105c610c3e565b90506110688282611021565b919050565b600067ffffffffffffffff82111561108857611087610ff2565b5b61109182610eee565b9050602081019050919050565b82818337600083830152505050565b60006110c06110bb8461106d565b611052565b9050828152602081018484840111156110dc576110db610fed565b5b6110e784828561109e565b509392505050565b600082601f83011261110457611103610fe8565b5b81356111148482602086016110ad565b91505092915050565b60008060008060008060c0878903121561113a57611139610c48565b5b600061114889828a01610fd3565b965050602087013567ffffffffffffffff81111561116957611168610c4d565b5b61117589828a016110ef565b955050604087013567ffffffffffffffff81111561119657611195610c4d565b5b6111a289828a016110ef565b94505060606111b389828a01610c69565b93505060806111c489828a01610c69565b92505060a087013567ffffffffffffffff8111156111e5576111e4610c4d565b5b6111f189828a016110ef565b9150509295509295509295565b600081519050919050565b600082825260208201905092915050565b6000819050602082019050919050565b600082825260208201905092915050565b600061124682610e9f565b611250818561122a565b9350611260818560208601610ebb565b61126981610eee565b840191505092915050565b600082825260208201905092915050565b600061129082610cab565b61129a8185611274565b93506112a583610cc7565b8060005b838110156112d65781516112bd8882610d18565b97506112c883610d30565b9250506001810190506112a9565b5085935050505092915050565b600082825260208201905092915050565b60006112ff82610d9b565b61130981856112e3565b935061131483610db7565b8060005b8381101561134557815161132c8882610dd6565b975061133783610dee565b925050600181019050611318565b5085935050505092915050565b60006101208301600083015161136b6000860182610d09565b5060208301518482036020860152611383828261123b565b9150506040830151848203604086015261139d828261123b565b91505060608301516113b26060860182610dc7565b5060808301516113c56080860182610dc7565b5060a08301516113d860a0860182610dc7565b5060c083015184820360c08601526113f0828261123b565b91505060e083015184820360e086015261140a8282611285565b91505061010083015184820361010086015261142682826112f4565b9150508091505092915050565b600061143f8383611352565b905092915050565b6000602082019050919050565b600061145f826111fe565b6114698185611209565b93508360208202850161147b8561121a565b8060005b858110156114b757848403895281516114988582611433565b94506114a383611447565b925060208a0199505060018101905061147f565b50829750879550505050505092915050565b600060208201905081810360008301526114e38184611454565b905092915050565b7f4e487b7100000000000000000000000000000000000000000000000000000000600052602260045260246000fd5b6000600282049050600182168061153257607f821691505b60208210811415611546576115456114eb565b5b50919050565b600081905092915050565b50565b600061156760008361154c565b915061157282611557565b600082019050919050565b60006115888261155a565b9150819050919050565b7f4e487b7100000000000000000000000000000000000000000000000000000000600052601160045260246000fd5b60006115cc82610c0a565b91506115d783610c0a565b9250827fffffffffffffffffffffffffffffffffffffffffffffffffffffffffffffffff0382111561160c5761160b611592565b5b828201905092915050565b7f54686520646561646c696e652073686f756c642062652061206461746520696e60008201527f2066757475726500000000000000000000000000000000000000000000000000602082015250565b6000611673602783610eaa565b915061167e82611617565b604082019050919050565b600060208201905081810360008301526116a281611666565b9050919050565b60006116b482610c0a565b91507fffffffffffffffffffffffffffffffffffffffffffffffffffffffffffffffff8214156116e7576116e6611592565b5b600182019050919050565b60006116fd82610c0a565b915061170883610c0a565b92508282101561171b5761171a611592565b5b828203905092915050565b7f4e487b7100000000000000000000000000000000000000000000000000000000600052603260045260246000fdfea2646970667358221220297ce6bbd803143354b8f61e1a6440be47dcde0270b8fe7ef7a925209ecc7ddd64736f6c63430008090033",
  "linkReferences": {},
  "deployedLinkReferences": {}
}